{
  "_format": "hh-sol-artifact-1",
  "contractName": "CarbonCreditNFT",
  "sourceName": "contracts/carboncredit.sol",
  "abi": [
    {
      "inputs": [],
      "stateMutability": "nonpayable",
      "type": "constructor"
    },
    {
      "inputs": [
        {
          "internalType": "address",
          "name": "sender",
          "type": "address"
        },
        {
          "internalType": "uint256",
          "name": "tokenId",
          "type": "uint256"
        },
        {
          "internalType": "address",
          "name": "owner",
          "type": "address"
        }
      ],
      "name": "ERC721IncorrectOwner",
      "type": "error"
    },
    {
      "inputs": [
        {
          "internalType": "address",
          "name": "operator",
          "type": "address"
        },
        {
          "internalType": "uint256",
          "name": "tokenId",
          "type": "uint256"
        }
      ],
      "name": "ERC721InsufficientApproval",
      "type": "error"
    },
    {
      "inputs": [
        {
          "internalType": "address",
          "name": "approver",
          "type": "address"
        }
      ],
      "name": "ERC721InvalidApprover",
      "type": "error"
    },
    {
      "inputs": [
        {
          "internalType": "address",
          "name": "operator",
          "type": "address"
        }
      ],
      "name": "ERC721InvalidOperator",
      "type": "error"
    },
    {
      "inputs": [
        {
          "internalType": "address",
          "name": "owner",
          "type": "address"
        }
      ],
      "name": "ERC721InvalidOwner",
      "type": "error"
    },
    {
      "inputs": [
        {
          "internalType": "address",
          "name": "receiver",
          "type": "address"
        }
      ],
      "name": "ERC721InvalidReceiver",
      "type": "error"
    },
    {
      "inputs": [
        {
          "internalType": "address",
          "name": "sender",
          "type": "address"
        }
      ],
      "name": "ERC721InvalidSender",
      "type": "error"
    },
    {
      "inputs": [
        {
          "internalType": "uint256",
          "name": "tokenId",
          "type": "uint256"
        }
      ],
      "name": "ERC721NonexistentToken",
      "type": "error"
    },
    {
      "inputs": [
        {
          "internalType": "address",
          "name": "owner",
          "type": "address"
        }
      ],
      "name": "OwnableInvalidOwner",
      "type": "error"
    },
    {
      "inputs": [
        {
          "internalType": "address",
          "name": "account",
          "type": "address"
        }
      ],
      "name": "OwnableUnauthorizedAccount",
      "type": "error"
    },
    {
      "anonymous": false,
      "inputs": [
        {
          "indexed": true,
          "internalType": "address",
          "name": "owner",
          "type": "address"
        },
        {
          "indexed": true,
          "internalType": "address",
          "name": "approved",
          "type": "address"
        },
        {
          "indexed": true,
          "internalType": "uint256",
          "name": "tokenId",
          "type": "uint256"
        }
      ],
      "name": "Approval",
      "type": "event"
    },
    {
      "anonymous": false,
      "inputs": [
        {
          "indexed": true,
          "internalType": "address",
          "name": "owner",
          "type": "address"
        },
        {
          "indexed": true,
          "internalType": "address",
          "name": "operator",
          "type": "address"
        },
        {
          "indexed": false,
          "internalType": "bool",
          "name": "approved",
          "type": "bool"
        }
      ],
      "name": "ApprovalForAll",
      "type": "event"
    },
    {
      "anonymous": false,
      "inputs": [
        {
          "indexed": true,
          "internalType": "address",
          "name": "account",
          "type": "address"
        }
      ],
      "name": "AuthorizedMinter",
      "type": "event"
    },
    {
      "anonymous": false,
      "inputs": [
        {
          "indexed": true,
          "internalType": "address",
          "name": "minter",
          "type": "address"
        },
        {
          "indexed": false,
          "internalType": "uint256",
          "name": "tokenId",
          "type": "uint256"
        },
        {
          "indexed": false,
          "internalType": "uint256",
          "name": "credits",
          "type": "uint256"
        }
      ],
      "name": "Minted",
      "type": "event"
    },
    {
      "anonymous": false,
      "inputs": [
        {
          "indexed": true,
          "internalType": "address",
          "name": "previousOwner",
          "type": "address"
        },
        {
          "indexed": true,
          "internalType": "address",
          "name": "newOwner",
          "type": "address"
        }
      ],
      "name": "OwnershipTransferred",
      "type": "event"
    },
    {
      "anonymous": false,
      "inputs": [
        {
          "indexed": true,
          "internalType": "uint256",
          "name": "tokenId",
          "type": "uint256"
        }
      ],
      "name": "Retired",
      "type": "event"
    },
    {
      "anonymous": false,
      "inputs": [
        {
          "indexed": true,
          "internalType": "address",
          "name": "account",
          "type": "address"
        }
      ],
      "name": "RevokedMinter",
      "type": "event"
    },
    {
      "anonymous": false,
      "inputs": [
        {
          "indexed": true,
          "internalType": "address",
          "name": "seller",
          "type": "address"
        },
        {
          "indexed": true,
          "internalType": "address",
          "name": "buyer",
          "type": "address"
        },
        {
          "indexed": false,
          "internalType": "uint256",
          "name": "tokenId",
          "type": "uint256"
        }
      ],
      "name": "Sold",
      "type": "event"
    },
    {
      "anonymous": false,
      "inputs": [
        {
          "indexed": true,
          "internalType": "address",
          "name": "from",
          "type": "address"
        },
        {
          "indexed": true,
          "internalType": "address",
          "name": "to",
          "type": "address"
        },
        {
          "indexed": true,
          "internalType": "uint256",
          "name": "tokenId",
          "type": "uint256"
        }
      ],
      "name": "Transfer",
      "type": "event"
    },
    {
      "anonymous": false,
      "inputs": [
        {
          "indexed": true,
          "internalType": "uint256",
          "name": "tokenId",
          "type": "uint256"
        },
        {
          "indexed": false,
          "internalType": "string",
          "name": "data",
          "type": "string"
        }
      ],
      "name": "Verified",
      "type": "event"
    },
    {
      "inputs": [
        {
          "internalType": "address",
          "name": "to",
          "type": "address"
        },
        {
          "internalType": "uint256",
          "name": "tokenId",
          "type": "uint256"
        }
      ],
      "name": "approve",
      "outputs": [],
      "stateMutability": "nonpayable",
      "type": "function"
    },
    {
      "inputs": [
        {
          "internalType": "address",
          "name": "account",
          "type": "address"
        }
      ],
      "name": "authorizeMinter",
      "outputs": [],
      "stateMutability": "nonpayable",
      "type": "function"
    },
    {
      "inputs": [
        {
          "internalType": "address",
          "name": "owner",
          "type": "address"
        }
      ],
      "name": "balanceOf",
      "outputs": [
        {
          "internalType": "uint256",
          "name": "",
          "type": "uint256"
        }
      ],
      "stateMutability": "view",
      "type": "function"
    },
    {
      "inputs": [
        {
          "internalType": "uint256",
          "name": "",
          "type": "uint256"
        }
      ],
      "name": "carbonCredits",
      "outputs": [
        {
          "internalType": "uint256",
          "name": "",
          "type": "uint256"
        }
      ],
      "stateMutability": "view",
      "type": "function"
    },
    {
      "inputs": [
        {
          "internalType": "uint256",
          "name": "tokenId",
          "type": "uint256"
        }
      ],
      "name": "getApproved",
      "outputs": [
        {
          "internalType": "address",
          "name": "",
          "type": "address"
        }
      ],
      "stateMutability": "view",
      "type": "function"
    },
    {
      "inputs": [
        {
          "internalType": "uint256",
          "name": "tokenId",
          "type": "uint256"
        }
      ],
      "name": "getCredits",
      "outputs": [
        {
          "internalType": "uint256",
          "name": "",
          "type": "uint256"
        }
      ],
      "stateMutability": "view",
      "type": "function"
    },
    {
      "inputs": [
        {
          "internalType": "uint256",
          "name": "tokenId",
          "type": "uint256"
        }
      ],
      "name": "getVerificationData",
      "outputs": [
        {
          "internalType": "string",
          "name": "",
          "type": "string"
        }
      ],
      "stateMutability": "view",
      "type": "function"
    },
    {
      "inputs": [
        {
          "internalType": "address",
          "name": "owner",
          "type": "address"
        },
        {
          "internalType": "address",
          "name": "operator",
          "type": "address"
        }
      ],
      "name": "isApprovedForAll",
      "outputs": [
        {
          "internalType": "bool",
          "name": "",
          "type": "bool"
        }
      ],
      "stateMutability": "view",
      "type": "function"
    },
    {
      "inputs": [
        {
          "internalType": "uint256",
          "name": "tokenId",
          "type": "uint256"
        }
      ],
      "name": "isRetired",
      "outputs": [
        {
          "internalType": "bool",
          "name": "",
          "type": "bool"
        }
      ],
      "stateMutability": "view",
      "type": "function"
    },
    {
      "inputs": [
        {
          "internalType": "address",
          "name": "to",
          "type": "address"
        },
        {
          "internalType": "uint256",
          "name": "credits",
          "type": "uint256"
        },
        {
          "internalType": "string",
          "name": "verification",
          "type": "string"
        }
      ],
      "name": "mintCarbonCredit",
      "outputs": [],
      "stateMutability": "nonpayable",
      "type": "function"
    },
    {
      "inputs": [
        {
          "internalType": "address",
          "name": "",
          "type": "address"
        }
      ],
      "name": "minters",
      "outputs": [
        {
          "internalType": "bool",
          "name": "isAuthorized",
          "type": "bool"
        },
        {
          "internalType": "uint256",
          "name": "mintedAmount",
          "type": "uint256"
        }
      ],
      "stateMutability": "view",
      "type": "function"
    },
    {
      "inputs": [],
      "name": "name",
      "outputs": [
        {
          "internalType": "string",
          "name": "",
          "type": "string"
        }
      ],
      "stateMutability": "view",
      "type": "function"
    },
    {
      "inputs": [],
      "name": "owner",
      "outputs": [
        {
          "internalType": "address",
          "name": "",
          "type": "address"
        }
      ],
      "stateMutability": "view",
      "type": "function"
    },
    {
      "inputs": [
        {
          "internalType": "uint256",
          "name": "tokenId",
          "type": "uint256"
        }
      ],
      "name": "ownerOf",
      "outputs": [
        {
          "internalType": "address",
          "name": "",
          "type": "address"
        }
      ],
      "stateMutability": "view",
      "type": "function"
    },
    {
      "inputs": [],
      "name": "renounceOwnership",
      "outputs": [],
      "stateMutability": "nonpayable",
      "type": "function"
    },
    {
      "inputs": [
        {
          "internalType": "uint256",
          "name": "tokenId",
          "type": "uint256"
        }
      ],
      "name": "retireCarbonCredit",
      "outputs": [],
      "stateMutability": "nonpayable",
      "type": "function"
    },
    {
      "inputs": [
        {
          "internalType": "uint256",
          "name": "",
          "type": "uint256"
        }
      ],
      "name": "retiredTokens",
      "outputs": [
        {
          "internalType": "bool",
          "name": "",
          "type": "bool"
        }
      ],
      "stateMutability": "view",
      "type": "function"
    },
    {
      "inputs": [
        {
          "internalType": "address",
          "name": "account",
          "type": "address"
        }
      ],
      "name": "revokeMinter",
      "outputs": [],
      "stateMutability": "nonpayable",
      "type": "function"
    },
    {
      "inputs": [
        {
          "internalType": "address",
          "name": "from",
          "type": "address"
        },
        {
          "internalType": "address",
          "name": "to",
          "type": "address"
        },
        {
          "internalType": "uint256",
          "name": "tokenId",
          "type": "uint256"
        }
      ],
      "name": "safeTransferFrom",
      "outputs": [],
      "stateMutability": "nonpayable",
      "type": "function"
    },
    {
      "inputs": [
        {
          "internalType": "address",
          "name": "from",
          "type": "address"
        },
        {
          "internalType": "address",
          "name": "to",
          "type": "address"
        },
        {
          "internalType": "uint256",
          "name": "tokenId",
          "type": "uint256"
        },
        {
          "internalType": "bytes",
          "name": "data",
          "type": "bytes"
        }
      ],
      "name": "safeTransferFrom",
      "outputs": [],
      "stateMutability": "nonpayable",
      "type": "function"
    },
    {
      "inputs": [
        {
          "internalType": "address",
          "name": "operator",
          "type": "address"
        },
        {
          "internalType": "bool",
          "name": "approved",
          "type": "bool"
        }
      ],
      "name": "setApprovalForAll",
      "outputs": [],
      "stateMutability": "nonpayable",
      "type": "function"
    },
    {
      "inputs": [
        {
          "internalType": "bytes4",
          "name": "interfaceId",
          "type": "bytes4"
        }
      ],
      "name": "supportsInterface",
      "outputs": [
        {
          "internalType": "bool",
          "name": "",
          "type": "bool"
        }
      ],
      "stateMutability": "view",
      "type": "function"
    },
    {
      "inputs": [],
      "name": "symbol",
      "outputs": [
        {
          "internalType": "string",
          "name": "",
          "type": "string"
        }
      ],
      "stateMutability": "view",
      "type": "function"
    },
    {
      "inputs": [],
      "name": "tokenCounter",
      "outputs": [
        {
          "internalType": "uint256",
          "name": "",
          "type": "uint256"
        }
      ],
      "stateMutability": "view",
      "type": "function"
    },
    {
      "inputs": [
        {
          "internalType": "uint256",
          "name": "tokenId",
          "type": "uint256"
        }
      ],
      "name": "tokenURI",
      "outputs": [
        {
          "internalType": "string",
          "name": "",
          "type": "string"
        }
      ],
      "stateMutability": "view",
      "type": "function"
    },
    {
      "inputs": [
        {
          "internalType": "address",
          "name": "to",
          "type": "address"
        },
        {
          "internalType": "uint256",
          "name": "tokenId",
          "type": "uint256"
        }
      ],
      "name": "tradeCarbonCredit",
      "outputs": [],
      "stateMutability": "nonpayable",
      "type": "function"
    },
    {
      "inputs": [
        {
          "internalType": "address",
          "name": "from",
          "type": "address"
        },
        {
          "internalType": "address",
          "name": "to",
          "type": "address"
        },
        {
          "internalType": "uint256",
          "name": "tokenId",
          "type": "uint256"
        }
      ],
      "name": "transferFrom",
      "outputs": [],
      "stateMutability": "nonpayable",
      "type": "function"
    },
    {
      "inputs": [
        {
          "internalType": "address",
          "name": "newOwner",
          "type": "address"
        }
      ],
      "name": "transferOwnership",
      "outputs": [],
      "stateMutability": "nonpayable",
      "type": "function"
    },
    {
      "inputs": [
        {
          "internalType": "uint256",
          "name": "",
          "type": "uint256"
        }
      ],
      "name": "verificationData",
      "outputs": [
        {
          "internalType": "string",
          "name": "",
          "type": "string"
        }
      ],
      "stateMutability": "view",
      "type": "function"
    },
    {
      "inputs": [
        {
          "internalType": "uint256",
          "name": "tokenId",
          "type": "uint256"
        },
        {
          "internalType": "string",
          "name": "data",
          "type": "string"
        }
      ],
      "name": "verifyCarbonCredit",
      "outputs": [],
      "stateMutability": "nonpayable",
      "type": "function"
    }
  ],
  "bytecode": "0x608060405234801561001057600080fd5b50336040518060400160405280600c81526020017f436172626f6e43726564697400000000000000000000000000000000000000008152506040518060400160405280600581526020017f43434e4654000000000000000000000000000000000000000000000000000000815250816000908161008d9190610445565b50806001908161009d9190610445565b505050600073ffffffffffffffffffffffffffffffffffffffff168173ffffffffffffffffffffffffffffffffffffffff16036101125760006040517f1e4fbdf70000000000000000000000000000000000000000000000000000000081526004016101099190610558565b60405180910390fd5b6101218161012f60201b60201c565b506001600781905550610573565b6000600660009054906101000a900473ffffffffffffffffffffffffffffffffffffffff16905081600660006101000a81548173ffffffffffffffffffffffffffffffffffffffff021916908373ffffffffffffffffffffffffffffffffffffffff1602179055508173ffffffffffffffffffffffffffffffffffffffff168173ffffffffffffffffffffffffffffffffffffffff167f8be0079c531659141344cd1fd0a4f28419497f9722a3daafe3b4186f6b6457e060405160405180910390a35050565b600081519050919050565b7f4e487b7100000000000000000000000000000000000000000000000000000000600052604160045260246000fd5b7f4e487b7100000000000000000000000000000000000000000000000000000000600052602260045260246000fd5b6000600282049050600182168061027657607f821691505b6020821081036102895761028861022f565b5b50919050565b60008190508160005260206000209050919050565b60006020601f8301049050919050565b600082821b905092915050565b6000600883026102f17fffffffffffffffffffffffffffffffffffffffffffffffffffffffffffffffff826102b4565b6102fb86836102b4565b95508019841693508086168417925050509392505050565b6000819050919050565b6000819050919050565b600061034261033d61033884610313565b61031d565b610313565b9050919050565b6000819050919050565b61035c83610327565b61037061036882610349565b8484546102c1565b825550505050565b600090565b610385610378565b610390818484610353565b505050565b5b818110156103b4576103a960008261037d565b600181019050610396565b5050565b601f8211156103f9576103ca8161028f565b6103d3846102a4565b810160208510156103e2578190505b6103f66103ee856102a4565b830182610395565b50505b505050565b600082821c905092915050565b600061041c600019846008026103fe565b1980831691505092915050565b6000610435838361040b565b9150826002028217905092915050565b61044e826101f5565b67ffffffffffffffff81111561046757610466610200565b5b610471825461025e565b61047c8282856103b8565b600060209050601f8311600181146104af576000841561049d578287015190505b6104a78582610429565b86555061050f565b601f1984166104bd8661028f565b60005b828110156104e5578489015182556001820191506020850194506020810190506104c0565b8683101561050257848901516104fe601f89168261040b565b8355505b6001600288020188555050505b505050505050565b600073ffffffffffffffffffffffffffffffffffffffff82169050919050565b600061054282610517565b9050919050565b61055281610537565b82525050565b600060208201905061056d6000830184610549565b92915050565b613593806105826000396000f3fe608060405234801561001057600080fd5b50600436106101da5760003560e01c806382b6831311610104578063b88d4fde116100a2578063d082e38111610071578063d082e38114610587578063e985e9c5146105a5578063f2fde38b146105d5578063f46eccc4146105f1576101da565b8063b88d4fde146104ef578063c87b56dd1461050b578063cf6ebee71461053b578063cfbd48851461056b576101da565b806395d89b41116100de57806395d89b4114610469578063a22cb46514610487578063aaa84caa146104a3578063ae9a2efd146104bf576101da565b806382b68313146104135780638da5cb5b1461042f5780638eb61eb31461044d576101da565b806323b872dd1161017c5780635a7dd27c1161014b5780635a7dd27c146103795780636352211e146103a957806370a08231146103d9578063715018a614610409576101da565b806323b872dd146102f5578063281fa8f31461031157806333220b8d1461034157806342842e0e1461035d576101da565b8063081812fc116101b8578063081812fc1461025d578063095ea7b31461028d5780630c984832146102a957806319389b95146102c5576101da565b806301ffc9a7146101df5780630343b1e71461020f57806306fdde031461023f575b600080fd5b6101f960048036038101906101f491906126b8565b610622565b6040516102069190612700565b60405180910390f35b61022960048036038101906102249190612751565b610704565b604051610236919061280e565b60405180910390f35b610247610820565b604051610254919061280e565b60405180910390f35b61027760048036038101906102729190612751565b6108b2565b6040516102849190612871565b60405180910390f35b6102a760048036038101906102a291906128b8565b6108ce565b005b6102c360048036038101906102be91906128f8565b6108e4565b005b6102df60048036038101906102da9190612751565b61098d565b6040516102ec9190612934565b60405180910390f35b61030f600480360381019061030a919061294f565b610a20565b005b61032b60048036038101906103269190612751565b610b22565b604051610338919061280e565b60405180910390f35b61035b60048036038101906103569190612751565b610bc2565b005b6103776004803603810190610372919061294f565b610c94565b005b610393600480360381019061038e9190612751565b610cb4565b6040516103a09190612934565b60405180910390f35b6103c360048036038101906103be9190612751565b610ccc565b6040516103d09190612871565b60405180910390f35b6103f360048036038101906103ee91906128f8565b610cde565b6040516104009190612934565b60405180910390f35b610411610d98565b005b61042d600480360381019061042891906128b8565b610dac565b005b610437610ef7565b6040516104449190612871565b60405180910390f35b61046760048036038101906104629190612a07565b610f21565b005b610471611144565b60405161047e919061280e565b60405180910390f35b6104a1600480360381019061049c9190612aa7565b6111d6565b005b6104bd60048036038101906104b89190612ae7565b6111ec565b005b6104d960048036038101906104d49190612751565b6112cd565b6040516104e69190612700565b60405180910390f35b61050960048036038101906105049190612c77565b6112ed565b005b61052560048036038101906105209190612751565b611312565b604051610532919061280e565b60405180910390f35b61055560048036038101906105509190612751565b61137b565b6040516105629190612700565b60405180910390f35b610585600480360381019061058091906128f8565b61141b565b005b61058f6114c4565b60405161059c9190612934565b60405180910390f35b6105bf60048036038101906105ba9190612cfa565b6114ca565b6040516105cc9190612700565b60405180910390f35b6105ef60048036038101906105ea91906128f8565b61155e565b005b61060b600480360381019061060691906128f8565b6115e4565b604051610619929190612d3a565b60405180910390f35b60007f80ac58cd000000000000000000000000000000000000000000000000000000007bffffffffffffffffffffffffffffffffffffffffffffffffffffffff1916827bffffffffffffffffffffffffffffffffffffffffffffffffffffffff191614806106ed57507f5b5e139f000000000000000000000000000000000000000000000000000000007bffffffffffffffffffffffffffffffffffffffffffffffffffffffff1916827bffffffffffffffffffffffffffffffffffffffffffffffffffffffff1916145b806106fd57506106fc82611615565b5b9050919050565b6060600073ffffffffffffffffffffffffffffffffffffffff1661072783610ccc565b73ffffffffffffffffffffffffffffffffffffffff160361077d576040517f08c379a000000000000000000000000000000000000000000000000000000000815260040161077490612daf565b60405180910390fd5b600b6000838152602001908152602001600020805461079b90612dfe565b80601f01602080910402602001604051908101604052809291908181526020018280546107c790612dfe565b80156108145780601f106107e957610100808354040283529160200191610814565b820191906000526020600020905b8154815290600101906020018083116107f757829003601f168201915b50505050509050919050565b60606000805461082f90612dfe565b80601f016020809104026020016040519081016040528092919081815260200182805461085b90612dfe565b80156108a85780601f1061087d576101008083540402835291602001916108a8565b820191906000526020600020905b81548152906001019060200180831161088b57829003601f168201915b5050505050905090565b60006108bd8261167f565b506108c782611707565b9050919050565b6108e082826108db611744565b61174c565b5050565b6108ec61175e565b6001600860008373ffffffffffffffffffffffffffffffffffffffff1673ffffffffffffffffffffffffffffffffffffffff16815260200190815260200160002060000160006101000a81548160ff0219169083151502179055508073ffffffffffffffffffffffffffffffffffffffff167fa1d81f39379cbd3fc0b41e0f22ac869eee88b0a7f221bf424e2db0eadb900b7b60405160405180910390a250565b60008073ffffffffffffffffffffffffffffffffffffffff166109af83610ccc565b73ffffffffffffffffffffffffffffffffffffffff1603610a05576040517f08c379a00000000000000000000000000000000000000000000000000000000081526004016109fc90612daf565b60405180910390fd5b60096000838152602001908152602001600020549050919050565b600073ffffffffffffffffffffffffffffffffffffffff168273ffffffffffffffffffffffffffffffffffffffff1603610a925760006040517f64a0ae92000000000000000000000000000000000000000000000000000000008152600401610a899190612871565b60405180910390fd5b6000610aa68383610aa1611744565b6117e5565b90508373ffffffffffffffffffffffffffffffffffffffff168173ffffffffffffffffffffffffffffffffffffffff1614610b1c578382826040517f64283d7b000000000000000000000000000000000000000000000000000000008152600401610b1393929190612e2f565b60405180910390fd5b50505050565b600b6020528060005260406000206000915090508054610b4190612dfe565b80601f0160208091040260200160405190810160405280929190818152602001828054610b6d90612dfe565b8015610bba5780601f10610b8f57610100808354040283529160200191610bba565b820191906000526020600020905b815481529060010190602001808311610b9d57829003601f168201915b505050505081565b3373ffffffffffffffffffffffffffffffffffffffff16610be282610ccc565b73ffffffffffffffffffffffffffffffffffffffff1614610c38576040517f08c379a0000000000000000000000000000000000000000000000000000000008152600401610c2f90612eb2565b60405180910390fd5b6001600a600083815260200190815260200160002060006101000a81548160ff021916908315150217905550807ffe4758e6ccdb65cb7d78b678b554dc5319e940c6ee582e94811b7d48fbb506c560405160405180910390a250565b610caf838383604051806020016040528060008152506112ed565b505050565b60096020528060005260406000206000915090505481565b6000610cd78261167f565b9050919050565b60008073ffffffffffffffffffffffffffffffffffffffff168273ffffffffffffffffffffffffffffffffffffffff1603610d515760006040517f89c62b64000000000000000000000000000000000000000000000000000000008152600401610d489190612871565b60405180910390fd5b600360008373ffffffffffffffffffffffffffffffffffffffff1673ffffffffffffffffffffffffffffffffffffffff168152602001908152602001600020549050919050565b610da061175e565b610daa60006119ff565b565b3373ffffffffffffffffffffffffffffffffffffffff16610dcc82610ccc565b73ffffffffffffffffffffffffffffffffffffffff1614610e22576040517f08c379a0000000000000000000000000000000000000000000000000000000008152600401610e1990612eb2565b60405180910390fd5b600a600082815260200190815260200160002060009054906101000a900460ff1615610e83576040517f08c379a0000000000000000000000000000000000000000000000000000000008152600401610e7a90612f1e565b60405180910390fd5b610e8e338383611ac5565b8173ffffffffffffffffffffffffffffffffffffffff163373ffffffffffffffffffffffffffffffffffffffff167ff3ecb4dab83f41da3035ff9cb3a2ef0c3027ebb89ae4e4b822d7c109e869a2fc83604051610eeb9190612934565b60405180910390a35050565b6000600660009054906101000a900473ffffffffffffffffffffffffffffffffffffffff16905090565b600860003373ffffffffffffffffffffffffffffffffffffffff1673ffffffffffffffffffffffffffffffffffffffff16815260200190815260200160002060000160009054906101000a900460ff1680610fae5750610f7f610ef7565b73ffffffffffffffffffffffffffffffffffffffff163373ffffffffffffffffffffffffffffffffffffffff16145b610fed576040517f08c379a0000000000000000000000000000000000000000000000000000000008152600401610fe490612f8a565b60405180910390fd5b60008311611030576040517f08c379a000000000000000000000000000000000000000000000000000000000815260040161102790612ff6565b60405180910390fd5b600060075490506110418582611c32565b8360096000838152602001908152602001600020819055508282600b6000848152602001908152602001600020918261107b9291906131cd565b506007600081548092919061108f906132cc565b919050555083600860003373ffffffffffffffffffffffffffffffffffffffff1673ffffffffffffffffffffffffffffffffffffffff16815260200190815260200160002060010160008282546110e69190613314565b925050819055503373ffffffffffffffffffffffffffffffffffffffff167f25b428dfde728ccfaddad7e29e4ac23c24ed7fd1a6e3e3f91894a9a073f5dfff8286604051611135929190613348565b60405180910390a25050505050565b60606001805461115390612dfe565b80601f016020809104026020016040519081016040528092919081815260200182805461117f90612dfe565b80156111cc5780601f106111a1576101008083540402835291602001916111cc565b820191906000526020600020905b8154815290600101906020018083116111af57829003601f168201915b5050505050905090565b6111e86111e1611744565b8383611c50565b5050565b6111f461175e565b600073ffffffffffffffffffffffffffffffffffffffff1661121584610ccc565b73ffffffffffffffffffffffffffffffffffffffff160361126b576040517f08c379a000000000000000000000000000000000000000000000000000000000815260040161126290612daf565b60405180910390fd5b8181600b6000868152602001908152602001600020918261128d9291906131cd565b50827fd63d84ab5d08c3b65b5182257a0fc9f8f76d34a0e1c7cd05d6a870000a5f05bd83836040516112c092919061339e565b60405180910390a2505050565b600a6020528060005260406000206000915054906101000a900460ff1681565b6112f8848484610a20565b61130c611303611744565b85858585611dbf565b50505050565b606061131d8261167f565b506000611328611f70565b905060008151116113485760405180602001604052806000815250611373565b8061135284611f87565b6040516020016113639291906133fe565b6040516020818303038152906040525b915050919050565b60008073ffffffffffffffffffffffffffffffffffffffff1661139d83610ccc565b73ffffffffffffffffffffffffffffffffffffffff16036113f3576040517f08c379a00000000000000000000000000000000000000000000000000000000081526004016113ea90612daf565b60405180910390fd5b600a600083815260200190815260200160002060009054906101000a900460ff169050919050565b61142361175e565b6000600860008373ffffffffffffffffffffffffffffffffffffffff1673ffffffffffffffffffffffffffffffffffffffff16815260200190815260200160002060000160006101000a81548160ff0219169083151502179055508073ffffffffffffffffffffffffffffffffffffffff167f8e768d7a5530d1f68e76ded405597f5ab4e340da31733f8704353e0b62b911f860405160405180910390a250565b60075481565b6000600560008473ffffffffffffffffffffffffffffffffffffffff1673ffffffffffffffffffffffffffffffffffffffff16815260200190815260200160002060008373ffffffffffffffffffffffffffffffffffffffff1673ffffffffffffffffffffffffffffffffffffffff16815260200190815260200160002060009054906101000a900460ff16905092915050565b61156661175e565b600073ffffffffffffffffffffffffffffffffffffffff168173ffffffffffffffffffffffffffffffffffffffff16036115d85760006040517f1e4fbdf70000000000000000000000000000000000000000000000000000000081526004016115cf9190612871565b60405180910390fd5b6115e1816119ff565b50565b60086020528060005260406000206000915090508060000160009054906101000a900460ff16908060010154905082565b60007f01ffc9a7000000000000000000000000000000000000000000000000000000007bffffffffffffffffffffffffffffffffffffffffffffffffffffffff1916827bffffffffffffffffffffffffffffffffffffffffffffffffffffffff1916149050919050565b60008061168b83612055565b9050600073ffffffffffffffffffffffffffffffffffffffff168173ffffffffffffffffffffffffffffffffffffffff16036116fe57826040517f7e2732890000000000000000000000000000000000000000000000000000000081526004016116f59190612934565b60405180910390fd5b80915050919050565b60006004600083815260200190815260200160002060009054906101000a900473ffffffffffffffffffffffffffffffffffffffff169050919050565b600033905090565b6117598383836001612092565b505050565b611766611744565b73ffffffffffffffffffffffffffffffffffffffff16611784610ef7565b73ffffffffffffffffffffffffffffffffffffffff16146117e3576117a7611744565b6040517f118cdaa70000000000000000000000000000000000000000000000000000000081526004016117da9190612871565b60405180910390fd5b565b6000806117f184612055565b9050600073ffffffffffffffffffffffffffffffffffffffff168373ffffffffffffffffffffffffffffffffffffffff161461183357611832818486612257565b5b600073ffffffffffffffffffffffffffffffffffffffff168173ffffffffffffffffffffffffffffffffffffffff16146118c457611875600085600080612092565b6001600360008373ffffffffffffffffffffffffffffffffffffffff1673ffffffffffffffffffffffffffffffffffffffff168152602001908152602001600020600082825403925050819055505b600073ffffffffffffffffffffffffffffffffffffffff168573ffffffffffffffffffffffffffffffffffffffff1614611947576001600360008773ffffffffffffffffffffffffffffffffffffffff1673ffffffffffffffffffffffffffffffffffffffff168152602001908152602001600020600082825401925050819055505b846002600086815260200190815260200160002060006101000a81548173ffffffffffffffffffffffffffffffffffffffff021916908373ffffffffffffffffffffffffffffffffffffffff160217905550838573ffffffffffffffffffffffffffffffffffffffff168273ffffffffffffffffffffffffffffffffffffffff167fddf252ad1be2c89b69c2b068fc378daa952ba7f163c4a11628f55a4df523b3ef60405160405180910390a4809150509392505050565b6000600660009054906101000a900473ffffffffffffffffffffffffffffffffffffffff16905081600660006101000a81548173ffffffffffffffffffffffffffffffffffffffff021916908373ffffffffffffffffffffffffffffffffffffffff1602179055508173ffffffffffffffffffffffffffffffffffffffff168173ffffffffffffffffffffffffffffffffffffffff167f8be0079c531659141344cd1fd0a4f28419497f9722a3daafe3b4186f6b6457e060405160405180910390a35050565b600073ffffffffffffffffffffffffffffffffffffffff168273ffffffffffffffffffffffffffffffffffffffff1603611b375760006040517f64a0ae92000000000000000000000000000000000000000000000000000000008152600401611b2e9190612871565b60405180910390fd5b6000611b45838360006117e5565b9050600073ffffffffffffffffffffffffffffffffffffffff168173ffffffffffffffffffffffffffffffffffffffff1603611bb857816040517f7e273289000000000000000000000000000000000000000000000000000000008152600401611baf9190612934565b60405180910390fd5b8373ffffffffffffffffffffffffffffffffffffffff168173ffffffffffffffffffffffffffffffffffffffff1614611c2c578382826040517f64283d7b000000000000000000000000000000000000000000000000000000008152600401611c2393929190612e2f565b60405180910390fd5b50505050565b611c4c82826040518060200160405280600081525061231b565b5050565b600073ffffffffffffffffffffffffffffffffffffffff168273ffffffffffffffffffffffffffffffffffffffff1603611cc157816040517f5b08ba18000000000000000000000000000000000000000000000000000000008152600401611cb89190612871565b60405180910390fd5b80600560008573ffffffffffffffffffffffffffffffffffffffff1673ffffffffffffffffffffffffffffffffffffffff16815260200190815260200160002060008473ffffffffffffffffffffffffffffffffffffffff1673ffffffffffffffffffffffffffffffffffffffff16815260200190815260200160002060006101000a81548160ff0219169083151502179055508173ffffffffffffffffffffffffffffffffffffffff168373ffffffffffffffffffffffffffffffffffffffff167f17307eab39ab6107e8899845ad3d59bd9653f200f220920489ca2b5937696c3183604051611db29190612700565b60405180910390a3505050565b60008373ffffffffffffffffffffffffffffffffffffffff163b1115611f69578273ffffffffffffffffffffffffffffffffffffffff1663150b7a02868685856040518563ffffffff1660e01b8152600401611e1e9493929190613477565b6020604051808303816000875af1925050508015611e5a57506040513d601f19601f82011682018060405250810190611e5791906134d8565b60015b611ede573d8060008114611e8a576040519150601f19603f3d011682016040523d82523d6000602084013e611e8f565b606091505b506000815103611ed657836040517f64a0ae92000000000000000000000000000000000000000000000000000000008152600401611ecd9190612871565b60405180910390fd5b805160208201fd5b63150b7a0260e01b7bffffffffffffffffffffffffffffffffffffffffffffffffffffffff1916817bffffffffffffffffffffffffffffffffffffffffffffffffffffffff191614611f6757836040517f64a0ae92000000000000000000000000000000000000000000000000000000008152600401611f5e9190612871565b60405180910390fd5b505b5050505050565b606060405180602001604052806000815250905090565b606060006001611f968461233f565b01905060008167ffffffffffffffff811115611fb557611fb4612b4c565b5b6040519080825280601f01601f191660200182016040528015611fe75781602001600182028036833780820191505090505b509050600082602083010190505b60011561204a578080600190039150507f3031323334353637383961626364656600000000000000000000000000000000600a86061a8153600a858161203e5761203d613505565b5b04945060008503611ff5575b819350505050919050565b60006002600083815260200190815260200160002060009054906101000a900473ffffffffffffffffffffffffffffffffffffffff169050919050565b80806120cb5750600073ffffffffffffffffffffffffffffffffffffffff168273ffffffffffffffffffffffffffffffffffffffff1614155b156121ff5760006120db8461167f565b9050600073ffffffffffffffffffffffffffffffffffffffff168373ffffffffffffffffffffffffffffffffffffffff161415801561214657508273ffffffffffffffffffffffffffffffffffffffff168173ffffffffffffffffffffffffffffffffffffffff1614155b8015612159575061215781846114ca565b155b1561219b57826040517fa9fbf51f0000000000000000000000000000000000000000000000000000000081526004016121929190612871565b60405180910390fd5b81156121fd57838573ffffffffffffffffffffffffffffffffffffffff168273ffffffffffffffffffffffffffffffffffffffff167f8c5be1e5ebec7d5bd14f71427d1e84f3dd0314c0f7b2291e5b200ac8c7c3b92560405160405180910390a45b505b836004600085815260200190815260200160002060006101000a81548173ffffffffffffffffffffffffffffffffffffffff021916908373ffffffffffffffffffffffffffffffffffffffff16021790555050505050565b612262838383612492565b61231657600073ffffffffffffffffffffffffffffffffffffffff168373ffffffffffffffffffffffffffffffffffffffff16036122d757806040517f7e2732890000000000000000000000000000000000000000000000000000000081526004016122ce9190612934565b60405180910390fd5b81816040517f177e802f00000000000000000000000000000000000000000000000000000000815260040161230d929190613534565b60405180910390fd5b505050565b6123258383612553565b61233a612330611744565b6000858585611dbf565b505050565b600080600090507a184f03e93ff9f4daa797ed6e38ed64bf6a1f010000000000000000831061239d577a184f03e93ff9f4daa797ed6e38ed64bf6a1f010000000000000000838161239357612392613505565b5b0492506040810190505b6d04ee2d6d415b85acef810000000083106123da576d04ee2d6d415b85acef810000000083816123d0576123cf613505565b5b0492506020810190505b662386f26fc10000831061240957662386f26fc1000083816123ff576123fe613505565b5b0492506010810190505b6305f5e1008310612432576305f5e100838161242857612427613505565b5b0492506008810190505b612710831061245757612710838161244d5761244c613505565b5b0492506004810190505b6064831061247a57606483816124705761246f613505565b5b0492506002810190505b600a8310612489576001810190505b80915050919050565b60008073ffffffffffffffffffffffffffffffffffffffff168373ffffffffffffffffffffffffffffffffffffffff161415801561254a57508273ffffffffffffffffffffffffffffffffffffffff168473ffffffffffffffffffffffffffffffffffffffff16148061250b575061250a84846114ca565b5b8061254957508273ffffffffffffffffffffffffffffffffffffffff1661253183611707565b73ffffffffffffffffffffffffffffffffffffffff16145b5b90509392505050565b600073ffffffffffffffffffffffffffffffffffffffff168273ffffffffffffffffffffffffffffffffffffffff16036125c55760006040517f64a0ae920000000000000000000000000000000000000000000000000000000081526004016125bc9190612871565b60405180910390fd5b60006125d3838360006117e5565b9050600073ffffffffffffffffffffffffffffffffffffffff168173ffffffffffffffffffffffffffffffffffffffff16146126475760006040517f73c6ac6e00000000000000000000000000000000000000000000000000000000815260040161263e9190612871565b60405180910390fd5b505050565b6000604051905090565b600080fd5b600080fd5b60007fffffffff0000000000000000000000000000000000000000000000000000000082169050919050565b61269581612660565b81146126a057600080fd5b50565b6000813590506126b28161268c565b92915050565b6000602082840312156126ce576126cd612656565b5b60006126dc848285016126a3565b91505092915050565b60008115159050919050565b6126fa816126e5565b82525050565b600060208201905061271560008301846126f1565b92915050565b6000819050919050565b61272e8161271b565b811461273957600080fd5b50565b60008135905061274b81612725565b92915050565b60006020828403121561276757612766612656565b5b60006127758482850161273c565b91505092915050565b600081519050919050565b600082825260208201905092915050565b60005b838110156127b857808201518184015260208101905061279d565b60008484015250505050565b6000601f19601f8301169050919050565b60006127e08261277e565b6127ea8185612789565b93506127fa81856020860161279a565b612803816127c4565b840191505092915050565b6000602082019050818103600083015261282881846127d5565b905092915050565b600073ffffffffffffffffffffffffffffffffffffffff82169050919050565b600061285b82612830565b9050919050565b61286b81612850565b82525050565b60006020820190506128866000830184612862565b92915050565b61289581612850565b81146128a057600080fd5b50565b6000813590506128b28161288c565b92915050565b600080604083850312156128cf576128ce612656565b5b60006128dd858286016128a3565b92505060206128ee8582860161273c565b9150509250929050565b60006020828403121561290e5761290d612656565b5b600061291c848285016128a3565b91505092915050565b61292e8161271b565b82525050565b60006020820190506129496000830184612925565b92915050565b60008060006060848603121561296857612967612656565b5b6000612976868287016128a3565b9350506020612987868287016128a3565b92505060406129988682870161273c565b9150509250925092565b600080fd5b600080fd5b600080fd5b60008083601f8401126129c7576129c66129a2565b5b8235905067ffffffffffffffff8111156129e4576129e36129a7565b5b602083019150836001820283011115612a00576129ff6129ac565b5b9250929050565b60008060008060608587031215612a2157612a20612656565b5b6000612a2f878288016128a3565b9450506020612a408782880161273c565b935050604085013567ffffffffffffffff811115612a6157612a6061265b565b5b612a6d878288016129b1565b925092505092959194509250565b612a84816126e5565b8114612a8f57600080fd5b50565b600081359050612aa181612a7b565b92915050565b60008060408385031215612abe57612abd612656565b5b6000612acc858286016128a3565b9250506020612add85828601612a92565b9150509250929050565b600080600060408486031215612b0057612aff612656565b5b6000612b0e8682870161273c565b935050602084013567ffffffffffffffff811115612b2f57612b2e61265b565b5b612b3b868287016129b1565b92509250509250925092565b600080fd5b7f4e487b7100000000000000000000000000000000000000000000000000000000600052604160045260246000fd5b612b84826127c4565b810181811067ffffffffffffffff82111715612ba357612ba2612b4c565b5b80604052505050565b6000612bb661264c565b9050612bc28282612b7b565b919050565b600067ffffffffffffffff821115612be257612be1612b4c565b5b612beb826127c4565b9050602081019050919050565b82818337600083830152505050565b6000612c1a612c1584612bc7565b612bac565b905082815260208101848484011115612c3657612c35612b47565b5b612c41848285612bf8565b509392505050565b600082601f830112612c5e57612c5d6129a2565b5b8135612c6e848260208601612c07565b91505092915050565b60008060008060808587031215612c9157612c90612656565b5b6000612c9f878288016128a3565b9450506020612cb0878288016128a3565b9350506040612cc18782880161273c565b925050606085013567ffffffffffffffff811115612ce257612ce161265b565b5b612cee87828801612c49565b91505092959194509250565b60008060408385031215612d1157612d10612656565b5b6000612d1f858286016128a3565b9250506020612d30858286016128a3565b9150509250929050565b6000604082019050612d4f60008301856126f1565b612d5c6020830184612925565b9392505050565b7f546f6b656e20646f6573206e6f74206578697374000000000000000000000000600082015250565b6000612d99601483612789565b9150612da482612d63565b602082019050919050565b60006020820190508181036000830152612dc881612d8c565b9050919050565b7f4e487b7100000000000000000000000000000000000000000000000000000000600052602260045260246000fd5b60006002820490506001821680612e1657607f821691505b602082108103612e2957612e28612dcf565b5b50919050565b6000606082019050612e446000830186612862565b612e516020830185612925565b612e5e6040830184612862565b949350505050565b7f4e6f7420746865206f776e657200000000000000000000000000000000000000600082015250565b6000612e9c600d83612789565b9150612ea782612e66565b602082019050919050565b60006020820190508181036000830152612ecb81612e8f565b9050919050565b7f546f6b656e206973207265746972656400000000000000000000000000000000600082015250565b6000612f08601083612789565b9150612f1382612ed2565b602082019050919050565b60006020820190508181036000830152612f3781612efb565b9050919050565b7f4e6f7420617574686f72697a6564000000000000000000000000000000000000600082015250565b6000612f74600e83612789565b9150612f7f82612f3e565b602082019050919050565b60006020820190508181036000830152612fa381612f67565b9050919050565b7f496e76616c69642063726564697420616d6f756e740000000000000000000000600082015250565b6000612fe0601583612789565b9150612feb82612faa565b602082019050919050565b6000602082019050818103600083015261300f81612fd3565b9050919050565b600082905092915050565b60008190508160005260206000209050919050565b60006020601f8301049050919050565b600082821b905092915050565b6000600883026130837fffffffffffffffffffffffffffffffffffffffffffffffffffffffffffffffff82613046565b61308d8683613046565b95508019841693508086168417925050509392505050565b6000819050919050565b60006130ca6130c56130c08461271b565b6130a5565b61271b565b9050919050565b6000819050919050565b6130e4836130af565b6130f86130f0826130d1565b848454613053565b825550505050565b600090565b61310d613100565b6131188184846130db565b505050565b5b8181101561313c57613131600082613105565b60018101905061311e565b5050565b601f8211156131815761315281613021565b61315b84613036565b8101602085101561316a578190505b61317e61317685613036565b83018261311d565b50505b505050565b600082821c905092915050565b60006131a460001984600802613186565b1980831691505092915050565b60006131bd8383613193565b9150826002028217905092915050565b6131d78383613016565b67ffffffffffffffff8111156131f0576131ef612b4c565b5b6131fa8254612dfe565b613205828285613140565b6000601f8311600181146132345760008415613222578287013590505b61322c85826131b1565b865550613294565b601f19841661324286613021565b60005b8281101561326a57848901358255600182019150602085019450602081019050613245565b868310156132875784890135613283601f891682613193565b8355505b6001600288020188555050505b50505050505050565b7f4e487b7100000000000000000000000000000000000000000000000000000000600052601160045260246000fd5b60006132d78261271b565b91507fffffffffffffffffffffffffffffffffffffffffffffffffffffffffffffffff82036133095761330861329d565b5b600182019050919050565b600061331f8261271b565b915061332a8361271b565b92508282019050808211156133425761334161329d565b5b92915050565b600060408201905061335d6000830185612925565b61336a6020830184612925565b9392505050565b600061337d8385612789565b935061338a838584612bf8565b613393836127c4565b840190509392505050565b600060208201905081810360008301526133b9818486613371565b90509392505050565b600081905092915050565b60006133d88261277e565b6133e281856133c2565b93506133f281856020860161279a565b80840191505092915050565b600061340a82856133cd565b915061341682846133cd565b91508190509392505050565b600081519050919050565b600082825260208201905092915050565b600061344982613422565b613453818561342d565b935061346381856020860161279a565b61346c816127c4565b840191505092915050565b600060808201905061348c6000830187612862565b6134996020830186612862565b6134a66040830185612925565b81810360608301526134b8818461343e565b905095945050505050565b6000815190506134d28161268c565b92915050565b6000602082840312156134ee576134ed612656565b5b60006134fc848285016134c3565b91505092915050565b7f4e487b7100000000000000000000000000000000000000000000000000000000600052601260045260246000fd5b60006040820190506135496000830185612862565b6135566020830184612925565b939250505056fea2646970667358221220e4c007cea41445c80ccf037bca29a9e70b56dcb4d3d4374625df41dd53541fe164736f6c634300081c0033",
  "linkReferences": {},
  "deployedLinkReferences": {}
}